{
  "contractName": "TimeLockedWalletFactory",
  "abi": [
    {
      "payable": false,
      "stateMutability": "nonpayable",
      "type": "fallback"
    },
    {
      "anonymous": false,
      "inputs": [
        {
          "indexed": false,
          "name": "wallet",
          "type": "address"
        },
        {
          "indexed": false,
          "name": "from",
          "type": "address"
        },
        {
          "indexed": false,
          "name": "to",
          "type": "address"
        },
        {
          "indexed": false,
          "name": "createdAt",
          "type": "uint256"
        },
        {
          "indexed": false,
          "name": "unlockDate",
          "type": "uint256"
        },
        {
          "indexed": false,
          "name": "amount",
          "type": "uint256"
        }
      ],
      "name": "Created",
      "type": "event"
    },
    {
      "constant": true,
      "inputs": [
        {
          "name": "_user",
          "type": "address"
        }
      ],
      "name": "getWallets",
      "outputs": [
        {
          "name": "",
          "type": "address[]"
        }
      ],
      "payable": false,
      "stateMutability": "view",
      "type": "function"
    },
    {
      "constant": false,
      "inputs": [
        {
          "name": "_owner",
          "type": "address"
        },
        {
          "name": "_unlockDate",
          "type": "uint256"
        }
      ],
      "name": "newTimeLockedWallet",
      "outputs": [
        {
          "name": "wallet",
          "type": "address"
        }
      ],
      "payable": true,
      "stateMutability": "payable",
      "type": "function"
    }
  ],
  "bytecode": "0x6060604052341561000f57600080fd5b610ec28061001e6000396000f30060606040526004361061004c576000357c0100000000000000000000000000000000000000000000000000000000900463ffffffff1680630a9ef9271461005c578063422c29a4146100d3575b341561005757600080fd5b600080fd5b610091600480803573ffffffffffffffffffffffffffffffffffffffff16906020019091908035906020019091905050610161565b604051808273ffffffffffffffffffffffffffffffffffffffff1673ffffffffffffffffffffffffffffffffffffffff16815260200191505060405180910390f35b34156100de57600080fd5b61010a600480803573ffffffffffffffffffffffffffffffffffffffff16906020019091905050610493565b6040518080602001828103825283818151815260200191508051906020019060200280838360005b8381101561014d578082015181840152602081019050610132565b505050509050019250505060405180910390f35b600033838361016e610565565b808473ffffffffffffffffffffffffffffffffffffffff1673ffffffffffffffffffffffffffffffffffffffff1681526020018373ffffffffffffffffffffffffffffffffffffffff1673ffffffffffffffffffffffffffffffffffffffff1681526020018281526020019350505050604051809103906000f08015156101f457600080fd5b90506000803373ffffffffffffffffffffffffffffffffffffffff1673ffffffffffffffffffffffffffffffffffffffff16815260200190815260200160002080548060010182816102469190610575565b9160005260206000209001600083909190916101000a81548173ffffffffffffffffffffffffffffffffffffffff021916908373ffffffffffffffffffffffffffffffffffffffff160217905550508273ffffffffffffffffffffffffffffffffffffffff163373ffffffffffffffffffffffffffffffffffffffff1614151561036a576000808473ffffffffffffffffffffffffffffffffffffffff1673ffffffffffffffffffffffffffffffffffffffff168152602001908152602001600020805480600101828161031a9190610575565b9160005260206000209001600083909190916101000a81548173ffffffffffffffffffffffffffffffffffffffff021916908373ffffffffffffffffffffffffffffffffffffffff160217905550505b8073ffffffffffffffffffffffffffffffffffffffff166108fc349081150290604051600060405180830381858888f1935050505015156103aa57600080fd5b7f14d5db8c1f746c7adcbcd13cf8945dd2ac6ad58be52380b8c4933c876f76e1bf813385428634604051808773ffffffffffffffffffffffffffffffffffffffff1673ffffffffffffffffffffffffffffffffffffffff1681526020018673ffffffffffffffffffffffffffffffffffffffff1673ffffffffffffffffffffffffffffffffffffffff1681526020018573ffffffffffffffffffffffffffffffffffffffff1673ffffffffffffffffffffffffffffffffffffffff168152602001848152602001838152602001828152602001965050505050505060405180910390a192915050565b61049b6105a1565b6000808373ffffffffffffffffffffffffffffffffffffffff1673ffffffffffffffffffffffffffffffffffffffff16815260200190815260200160002080548060200260200160405190810160405280929190818152602001828054801561055957602002820191906000526020600020905b8160009054906101000a900473ffffffffffffffffffffffffffffffffffffffff1673ffffffffffffffffffffffffffffffffffffffff168152602001906001019080831161050f575b50505050509050919050565b6040516108bc806105db83390190565b81548183558181151161059c5781836000526020600020918201910161059b91906105b5565b5b505050565b602060405190810160405280600081525090565b6105d791905b808211156105d35760008160009055506001016105bb565b5090565b9056006060604052341561000f57600080fd5b6040516060806108bc83398101604052808051906020019091908051906020019091908051906020019091905050826000806101000a81548173ffffffffffffffffffffffffffffffffffffffff021916908373ffffffffffffffffffffffffffffffffffffffff16021790555081600160006101000a81548173ffffffffffffffffffffffffffffffffffffffff021916908373ffffffffffffffffffffffffffffffffffffffff16021790555080600281905550426003819055505050506107de806100de6000396000f300606060405260043610610083576000357c0100000000000000000000000000000000000000000000000000000000900463ffffffff16806302d05d3f146100f0578063370158ea146101455780633ccfd60b146101e257806349df728c146101f757806369ac5721146102305780638da5cb5b14610259578063cf09e0d0146102ae575b7f88a5966d370b9919b20f3e2c13ff65706f196a4e32cc2c12bf57088f885258743334604051808373ffffffffffffffffffffffffffffffffffffffff1673ffffffffffffffffffffffffffffffffffffffff1681526020018281526020019250505060405180910390a1005b34156100fb57600080fd5b6101036102d7565b604051808273ffffffffffffffffffffffffffffffffffffffff1673ffffffffffffffffffffffffffffffffffffffff16815260200191505060405180910390f35b341561015057600080fd5b6101586102fc565b604051808673ffffffffffffffffffffffffffffffffffffffff1673ffffffffffffffffffffffffffffffffffffffff1681526020018573ffffffffffffffffffffffffffffffffffffffff1673ffffffffffffffffffffffffffffffffffffffff1681526020018481526020018381526020018281526020019550505050505060405180910390f35b34156101ed57600080fd5b6101f5610378565b005b341561020257600080fd5b61022e600480803573ffffffffffffffffffffffffffffffffffffffff169060200190919050506104c0565b005b341561023b57600080fd5b610243610780565b6040518082815260200191505060405180910390f35b341561026457600080fd5b61026c610786565b604051808273ffffffffffffffffffffffffffffffffffffffff1673ffffffffffffffffffffffffffffffffffffffff16815260200191505060405180910390f35b34156102b957600080fd5b6102c16107ac565b6040518082815260200191505060405180910390f35b6000809054906101000a900473ffffffffffffffffffffffffffffffffffffffff1681565b60008060008060008060009054906101000a900473ffffffffffffffffffffffffffffffffffffffff16600160009054906101000a900473ffffffffffffffffffffffffffffffffffffffff166002546003543073ffffffffffffffffffffffffffffffffffffffff1631945094509450945094509091929394565b600160009054906101000a900473ffffffffffffffffffffffffffffffffffffffff1673ffffffffffffffffffffffffffffffffffffffff163373ffffffffffffffffffffffffffffffffffffffff161415156103d457600080fd5b60025442101515156103e557600080fd5b3373ffffffffffffffffffffffffffffffffffffffff166108fc3073ffffffffffffffffffffffffffffffffffffffff16319081150290604051600060405180830381858888f19350505050151561043c57600080fd5b7fb244b9a17ad633c6e83b7983ee04320484956a68ddbe96a0b70dfca1cf19d723333073ffffffffffffffffffffffffffffffffffffffff1631604051808373ffffffffffffffffffffffffffffffffffffffff1673ffffffffffffffffffffffffffffffffffffffff1681526020018281526020019250505060405180910390a1565b600080600160009054906101000a900473ffffffffffffffffffffffffffffffffffffffff1673ffffffffffffffffffffffffffffffffffffffff163373ffffffffffffffffffffffffffffffffffffffff1614151561051f57600080fd5b600254421015151561053057600080fd5b8291508173ffffffffffffffffffffffffffffffffffffffff166370a08231306000604051602001526040518263ffffffff167c0100000000000000000000000000000000000000000000000000000000028152600401808273ffffffffffffffffffffffffffffffffffffffff1673ffffffffffffffffffffffffffffffffffffffff168152602001915050602060405180830381600087803b15156105d657600080fd5b6102c65a03f115156105e757600080fd5b5050506040518051905090508173ffffffffffffffffffffffffffffffffffffffff1663a9059cbb600160009054906101000a900473ffffffffffffffffffffffffffffffffffffffff16836000604051602001526040518363ffffffff167c0100000000000000000000000000000000000000000000000000000000028152600401808373ffffffffffffffffffffffffffffffffffffffff1673ffffffffffffffffffffffffffffffffffffffff16815260200182815260200192505050602060405180830381600087803b15156106c057600080fd5b6102c65a03f115156106d157600080fd5b50505060405180519050507fa04c965e7d289704527a948915777d68bb4530fb4b08aa935fb958c0b7901ab9833383604051808473ffffffffffffffffffffffffffffffffffffffff1673ffffffffffffffffffffffffffffffffffffffff1681526020018373ffffffffffffffffffffffffffffffffffffffff1673ffffffffffffffffffffffffffffffffffffffff168152602001828152602001935050505060405180910390a1505050565b60025481565b600160009054906101000a900473ffffffffffffffffffffffffffffffffffffffff1681565b600354815600a165627a7a723058205e72b8383b2415259b7480b1f07ed9b4078e957ef8a18e9fa12633402803514b0029a165627a7a72305820618e5dca6e2e87e7bbfc6fe6dbcad55b408eddc7c45ff628aa03e4762dd8fa0d0029",
  "source": "pragma solidity ^0.4.18;\r\n\r\nimport \"./TimeLockedWallet.sol\";\r\n\r\ncontract TimeLockedWalletFactory {\r\n \r\n    mapping(address => address[]) wallets;\r\n\r\n    function getWallets(address _user) \r\n        public\r\n        view\r\n        returns(address[])\r\n    {\r\n        return wallets[_user];\r\n    }\r\n\r\n    function newTimeLockedWallet(address _owner, uint256 _unlockDate)\r\n        payable\r\n        public\r\n        returns(address wallet)\r\n    {\r\n        // Create new wallet.\r\n        wallet = new TimeLockedWallet(msg.sender, _owner, _unlockDate);\r\n        \r\n        // Add wallet to sender's wallets.\r\n        wallets[msg.sender].push(wallet);\r\n\r\n        // If owner is the same as sender then add wallet to sender's wallets too.\r\n        if(msg.sender != _owner){\r\n            wallets[_owner].push(wallet);\r\n        }\r\n\r\n        // Send ether from this transaction to the created contract.\r\n        wallet.transfer(msg.value);\r\n\r\n        // Emit event.\r\n        Created(wallet, msg.sender, _owner, now, _unlockDate, msg.value);\r\n    }\r\n\r\n    // Prevents accidental sending of ether to the factory\r\n    function () public {\r\n        revert();\r\n    }\r\n\r\n    event Created(address wallet, address from, address to, uint256 createdAt, uint256 unlockDate, uint256 amount);\r\n}\r\n",
  "sourcePath": "C:/Users/class3/Desktop/6day/time-locked-wallets/contracts/TimeLockedWalletFactory.sol",
  "compiler": {
    "name": "solc",
    "version": "0.4.18+commit.9cf6e910.Emscripten.clang"
  },
  "schemaVersion": "3.0.13",
  "updatedAt": "2019-08-27T04:18:00.687Z",
  "devdoc": {
    "methods": {}
  },
  "userdoc": {
    "methods": {}
  }
}